:10000000F8FF022099010000214A0000D9490000B0
:10001000D9490000D9490000D9490000D949000058
:10002000D9490000D9490000D9490000214A0000FF
:10003000214A0000D9490000AD790000B17A0000E2
:10004000214A0000214A0000214A0000214A000004
:10005000214A0000214A0000214A0000214A0000F4
:10006000214A0000214A0000214A0000214A0000E4
:10007000214A0000214A0000214A0000214A0000D4
:10008000214A0000214A0000214A0000214A0000C4
:10009000214A0000214A0000214A0000214A0000B4
:1000A000CD340000D9340000214A0000214A00006C
:1000B000214A0000214A0000214A0000295900007D
:1000C000214A000099600000214A00002D660000CE
:1000D000214A0000197C0000214A0000214A00004A
:1000E000214A0000214A0000214A0000214A000064
:1000F000214A0000214A0000214A0000214A000054
:10010000A97B0000BD7B0000D17B0000E57B0000E7
:10011000214A0000B9680000214A0000214A00007D
:10012000214A0000214A0000214A0000214A000023
:10013000214A0000214A0000214A0000214A000013
:10014000214A0000214A0000117D0000214A0000E0
:10015000097E0000214A0000214A0000214A0000D7
:10016000214A0000214A0000E5340000214A000035
:10017000214A0000214A0000214A0000214A0000D3
:10018000214A0000214A0000214A0000214A0000C3
:10019000214A0000214A0000584B4CF2205210B571
:1001A0001A804DF628121A8000BF00BF04F03CFCF4
:1001B000534B4FF030621A60524A9A60524ADA60EA
:1001C000524B4FF470021A60514A136813F4807353
:1001D00004D150490B604FF4A85313604E4B1A786A
:1001E000110703D51A7842F008021A704B4B4C499C
:1001F0002A221A704B4A4C4B8B4204D252F8040FFD
:1002000043F8040BF8E7494B494900228B4202D2DC
:1002100043F8042BFAE74749474A002352F82300E2
:1002200041F823000133662BF8D1444B444A802126
:1002300003F8011B9342FBD1424B3E4A1A60424BEA
:100240008A221A70A3F5805324225A70A0221A70B1
:100250009A799207FCD59A79D406FCD43B4A9379D3
:1002600003F00C03082B394BF9D103221A714622F3
:100270005A719A799006FCD5344A9179334B4906E4
:10028000FBD5334A4FF08271116009215160202261
:100290001A709A7902F00C020C2AFAD12D4B2E4AD0
:1002A0001A602E4B2E4A1A6000225A60072243F829
:1002B000042C2C4AC3F80C2D62B604F025FF154B14
:1002C0001B68DA0705D5284804F08EFC274B284A1E
:1002D0001A60284B1B785B0609D5244C244B2268F6
:1002E0009A4204D1204804F07FFC0023236013F0DD
:1002F000DDF804F09FFB04F0CDFAFEE70E20054088
:1003000030800440823F04000100002B88ED00E0B3
:1003100010D0034014D0034002D0074000E0074053
:100320000813FF1F10B20100F806FF1F0813FF1F7C
:10033000E034FF1F0002FF1F0000000000E400E0A7
:1003400056E400E008ED00E00050064000400640A2
:100350004480044004800440C010050014E000E024
:10036000BFD4010000002020B67321601CE00340D0
:10037000A5C3945A00F00740FFFFFFFFFFFFFFFFF8
:10038000FFFFFFFFFFFFFFFFFFFFFFFFFFFFFFFF7D
:10039000FFFFFFFFFFFFFFFFFFFFFFFFFFFFFFFF6D
:1003A000FFFFFFFFFFFFFFFFFFFFFFFFFFFFFFFF5D
:1003B000FFFFFFFFFFFFFFFFFFFFFFFFFFFFFFFF4D
:1003C000FFFFFFFFFFFFFFFFFFFFFFFFFFFFFFFF3D
:1003D000FFFFFFFFFFFFFFFFFFFFFFFFFFFFFFFF2D
:1003E000FFFFFFFFFFFFFFFFFFFFFFFFFFFFFFFF1D
:1003F000FFFFFFFFFFFFFFFFFFFFFFFFFFFFFFFF0D
:10040000FFFFFFFFFFFFFFFFFFFFFFFFDEF9FFFF23
:1004100010B5054C237833B9044B13B10448AFF33E
:1004200000800123237010BD0813FF1F000000008F
:100430004CAE0100084B10B51BB108490848AFF39A
:1004400000800848036803B910BD074B002BFBD0A0
:10045000BDE81040184700BF000000000C13FF1F4C
:100460004CAE01000813FF1F00000000BDEEC00AE3
:1004700080ED000A704700BF026890ED017A0B4BD7
:1004800080ED010AC2F1010207EE902AF8EEE77A48
:1004900067EE877A90ED007AB8EEC77AE7EE007AD9
:1004A000B0EE670AC3ED007A704700BF2413FF1F48
:1004B00090F8383090F839209A4205D95A1C0344F4
:1004C00080F83820187E70474FF0FF30704700BF2B
:1004D00080697047704700BF036810B504461B6809
:1004E00098472368084A1B69934208D1A1690748C5
:1004F00003F0FCFE0548BDE8104003F09FBE204617
:1005000098470146F3E700BFD10400008008FF1FB1
:10051000036810B504469B6898472368044ADB6863
:10052000934200D110BD2046BDE81040184700BFDF
:10053000D5040000037C012B10B5044617D0022B14
:1005400009D0032B25D0042B0CD010BD60680368A4
:100550005B699847A061606803681B699847002839
:10056000F4DC10BD007D04F06DFDA06110BD80685D
:100570000D4A03685B69934210D190F8383090F8C7
:1005800039209A420CD95A1C034480F83820187E2E
:10059000EBE7007D04F0C4F8A06110BD9847E4E7E4
:1005A0004FF0FF30E1E700BFB1040000024A0260F3
:1005B0000022027482617047E882010038B50B4660
:1005C00007490446186884E80A0002251146257484
:1005D000C269184690470023A361204638BD00BF7A
:1005E000E88201000B4B10B50446416103602AB15B
:1005F000032303740023A361204610BD042308468F
:1006000023741146C0B204F02BFD0023A3612046E1
:1006100010BD00BFE882010081422DE9F843044685
:1006200019D091E800410068A368C8EB0E05AF102F
:100630001B1AB7EBA30F0E4619D863681A1A91104C
:100640008F420BD9A9BB08EB0201C1EB0E02960841
:1006500022D1054465602046BDE8F883002FF8D01C
:100660002A46414613F01EFB20680544F2E74FB3CB
:10067000B7F1804F2CD2284604F028FAD4F8009025
:10068000064677B9B9F1000F02D0484604F020FAC7
:100690003544A5602660DDE7184613F003FB2068AB
:1006A000D7E741462A4613F0FDFAB9F1000FECD125
:1006B000EEE7414613F0F6FA94E8090096E80041A7
:1006C0001A1AC0E781463E46B9F1000FDDD1DFE7D7
:1006D00007F04AFCF8B50C4B0C4F0D4E00241C6083
:1006E000B42504EBC4002422002107EB800013F0A2
:1006F0003DFB05FB0460B4220021013413F036FBFE
:10070000142CEED1F8BD00BF0824FF1F3821FF1FB5
:100710002813FF1F70B5184E184C33681848013362
:1007200084FB0325DA17C2EBE50505EB8505A3EB92
:10073000850505F1130284FB0234D317C3EBE404EF
:1007400004EB8404A2EB84043560B4220D4E02FB5A
:10075000040104EBC40402FB050006EB840404F06E
:10076000A1F80FCC05EBC50506EB85050FC50FCC31
:100770000FC523682B6070BD0824FF1F676666667F
:100780002813FF1F3821FF1F2DE9F04740F2DC50EE
:100790002DED048B04F06AFC00262E4FDFF8CCA070
:1007A0002D4DDFED2E9A9FED2E9A4FF000084FF061
:1007B000000900241BE007EE904AF8EEE77A67EEA6
:1007C000A97A87EE897A17EE100A10F0D1FF41EC72
:1007D000100B41EC180B0FF0A7F859EC108BB0EE92
:1007E000480AF0EE680A0FF03FF857EC106B4946E4
:1007F000404611F0E9FA39464AF8040B304611F048
:10080000E3FA0134B4F5B47F45F8040BD3D10320E7
:1008100004F05CF90024134B047044708470186079
:10082000FFF758FF00F0F8FF01F0E0F84FF4FA701E
:1008300004F01CFC0C48224621462346006800F0C8
:10084000B5F8BDEC048BFA22DC210620BDE8F047A8
:1008500003F0B0BD0000F03FAC29FF1FC3F54840D6
:10086000000034434C2FFF1F6C2FFF1F0C24FF1F71
:1008700008B501F053F806F099FE18B1084B186856
:1008800002F06CF8074B0121186801F08BF8064B59
:10089000186800F05FFABDE80840FFF73BBF00BFF3
:1008A0004C2FFF1F782FFF1F6C2FFF1FFFFFFFFF35
:1008B0002DE9F0412DED028B9FED318B044682B086
:1008C000E261236253EC182B002500200A9EA161EF
:1008D00027466662A064E06420656065A065E06507
:1008E000606625636563A56384ED1A8B84ED1C8BBC
:1008F000E820E7E91E2304F0E9F8B0EE481AF0EE2C
:10090000681A01269FED202B80463B4604F17002B9
:1009100004F168019FED1E0B0195009602F044FE64
:1009200031464046C4F8288002F0D6FFA06A002273
:100930004FF08043C0E926239FED170B9FED181B56
:1009400080F8E26002F0F2FF3146A06A03F038F866
:10095000082004F0BBF89FED140A0746FFF786FD58
:100960002046E762267465612560A5606560E560E4
:1009700002B0BDEC028BBDE8F08100BFAFF3008098
:100980000000000000000000000000A09999B93F9D
:10099000000000000000F83F0000000000E06FC011
:1009A0000000000000E06F409A99993E01634263A5
:1009B000836370472DE9F04307EE902A0446B8EEB2
:1009C000E70A83B0C06A1D460E46FFF755FDD64ABA
:1009D000DFF874E3B300FDEEC07AD11891ED007A30
:1009E00017EE907AF8EEE77A0EEB030127EE877A9E
:1009F0007B4207EE903A84ED127AD1ED006AF8EE70
:100A0000E77AB42D67EEA67AC8BFA5F5B475F5EE02
:100A1000C07AF1EE10FAC4ED137A00F15E81F5EEC2
:100A2000C07AF1EE10FA03DD2368012B00F0598142
:100A3000B5EEC07AF1EE10FA00F16681B5EEC07A3B
:100A4000F1EE10FA03DDE368012B00F04A81B749AB
:100A5000636909680191019903F548738B4280F03D
:100A60002A810023A36023606360E360D4ED137ADE
:100A7000B5EEC07AF1EE10FA03DD6368012B00F0E9
:100A80003C81B5EEC07AF1EE10FA00F13281D4ED7E
:100A9000126AA369DFF8B482D868E369DFF8B0921C
:100AA0009FEDA36A8000111891ED007AD968236A3E
:100AB0007044D0ED005ADB6827EE877A8900A5EEF6
:100AC000A67A501871449B0084ED147A90ED007A58
:100AD000D1ED005A606A27EE877AD118A5EEA67A82
:100AE000734484ED157A91ED007AD3ED005AC16814
:100AF000D8F800308F4827EE877A1333A5EEA67A10
:100B0000890080FB030C0A4484ED167AD81792ED15
:100B1000007AC0EBEC0202EB8202A3EB8202B42368
:100B200003FB02F2714459F8023067EE877A91EDC7
:100B3000007AE7EE267A07EE103AB8EEC77AC4EDEF
:100B4000177AB4EEC67AF1EE10FAC4BFDFED7A7A06
:100B500037EE677A84ED197A17EE100A10F008FE66
:100B6000C4E91A01284610F0F1FDC4E91E01A06A8B
:100B700002F096FDD4E91C0111F026F994ED146AF7
:100B80009FED6E5AD4ED156A94ED167AD4ED177A6E
:100B900005EE900A36EE656AF1EE654AB4EEC56A76
:100BA000F1EE10FAC4ED184A76EEE56A37EE657A92
:100BB00077EEE57A0BD4DFED625AB4EEE56AF1EE3A
:100BC00010FA40F38580B0EE656AFF2103E0B0EED5
:100BD000456A6FF0FE01DFED595A84ED146AF4EEB8
:100BE000E56AF1EE10FA60D49FED556AF4EE466ABC
:100BF000F1EE10FAC8BFF0EE466A9FED506AC4ED00
:100C0000156AB4EEC67AF1EE10FA51D4DFED4C6AF3
:100C1000B4EE667AF1EE10FAC8BFB0EE667ADFED98
:100C2000476A84ED167AF4EEE67AF1EE10FA5DD4B6
:100C30009FED437AF4EE477AF1EE10FAC8BFF0EE7A
:100C4000477AC4ED177AA06900F0A6F8D4ED157ABA
:100C5000E069FDEEE77A17EE901A00F09DF8D4ED0A
:100C6000167A206AFDEEE77A17EE901A00F094F8F3
:100C7000D4ED177A606AFDEEE77A17EE901A00F06D
:100C80008BF8D8F800302168E763B42202FB0393A5
:100C90006268A0689A65E268DA65DE645F649D64F4
:100CA0001965586503B0BDE8F083F0EE656AA4E706
:100CB000B0EE467AB3E7F5EEC07AF1EE10FA28DD31
:100CC000A368012B25D1DFED1F7AC4ED137ACFE69F
:100CD000FDEEC65A15EE901A7DE7A368012B7FF44E
:100CE0009EAE237C002B7FF4BCAEB0E6F0EE667ABD
:100CF000A7E7E368012B7FF4CAAE9FED127AF0EE0E
:100D0000476A84ED127AC4E66368012B7FF496AEDD
:100D1000E7E7F5EEC07AF1EE10FA7FF5A7AE2368AB
:100D2000012BD0D0A2E600BFAC29FF1FA42FFF1FCC
:100D300000003443676666660000B44300007FC36A
:100D400000007F43000000000C24FF1F0824FF1F49
:100D50002813FF1F014630310EC9FFF72BBE00BF1D
:100D600038B50446049D80E80E00C8B2E560012154
:100D700004F076F92079012104F072F9207A01213A
:100D800004F06EF9207A9FED030A04F0C3F82046C0
:100D900038BD00BF00409C4570B50D1E04460FD005
:100DA00011DD00260121207804F046F93146207932
:100DB00004F042F92946207ABDE8704003F026BFCE
:100DC0002E462946EFE76D4201260021EBE700BFE2
:100DD00010B504460021007804F02EF92079012195
:100DE00004F02AF9207AFF2103F010FF40F2DC50D2
:100DF00004F03CF92078012104F01EF9207900214B
:100E000004F01AF9207AFF2103F000FF40F2DC50D1
:100E1000BDE8104004F02AB98169CB0730B417D47B
:100E20004B00C3610E4B0F4C1A680F4B02EBC2050F
:100E300004EB8504B42505FB02332176C469016AFD
:100E400090F8242083F8B1205C60996030BC704732
:100E5000B1F1FF0318BF0123016280F82430E1E7FC
:100E60000824FF1F3821FF1F2813FF1F036810B538
:100E700004461B68984794F8243043B90F21114861
:100E800006F0BEFB1048BDE8104003F0D7B9E16999
:100E90000D4803F02BFA03210C4806F0B1FB216A40
:100EA000094803F023FA0321084806F0A9FB94F847
:100EB0002410054803F01AFA0348BDE8104003F077
:100EC000BDB900BF008301008008FF1FFC82010044
:100ED00010B50446FFF772FB044B2360002384F82F
:100EE00024302362E361204610BD00BF1883010057
:100EF000704700BFF0B5134CC26A236889B00093F5
:100F0000009B9B1A0A2B1BD905461A2200F11C01D3
:100F100002A802F023FFDDE9020110F02DFF0A4ACA
:100F2000236812680193B42302EBC206074C0849F8
:100F3000019FA86103FB02F3EF6244F82600C8504A
:100F400009B0F0BDA42FFF1F0824FF1F3821FF1F89
:100F50002813FF1F70B5054684B00446FFF726FB33
:100F6000164B45F81C3B0126282228464FF0FF313E
:100F700002F0CCFD267428224FF0FF31684602F0C3
:100F8000C5FD9DF80C309DF804009DF80510029AEF
:100F900084F8283084F8200084F821106262284602
:100FA000082102F035FE2846314602F0D5FD002327
:100FB0002046A361E36204B070BD00BF348301002A
:100FC00008B506F0F3FA50B904F02CFC00B908BDDE
:100FD00004F038FCBDE80840C0B204F097BB06F04E
:100FE000A9FAC0B206F090FB014803F027F9EBE73D
:100FF0008008FF1F10B50446FFF7E0FA014B23609D
:10100000204610BD508301002DE9F84F8046262070
:1010100004F018F8D8F80030AA4C1A68C8F8800014
:10102000404690470D21A848DFF8C8B2A74DA84E0A
:10103000DFF8C4A2DFF8C49206F0E2FAD8F8201074
:10104000204603F053F91021A24806F0D9FAD8F847
:101050002810204603F04AF90D219F4806F0D0FAE7
:10106000D8F83010204603F041F909219B4806F0DA
:10107000C7FADBF80020133285FB0230D117C1EB31
:10108000E00101EB8101B427A2EB810207FB0262C0
:10109000204692F8AF1003F029F9204603F0CEF86D
:1010A00015218F4806F0ACFADBF80020133285FBDF
:1010B0000230D117C1EBE00101EB8101A2EB81020B
:1010C00007FB02622046516B03F010F950460121E4
:1010D00006F096FADBF80020133285FB0230D117B8
:1010E000C1EBE00101EB8101A2EB810207FB02628F
:1010F0002046916B03F0FAF84846012106F080FA89
:101100001221784806F07CFADBF80020133285FBC8
:101110000230D117C1EBE00101EB8101A2EB8102AA
:1011200007FB02622046D16F03F0E0F85046012130
:1011300006F066FADBF80020133285FB0230D11787
:10114000C1EBE00101EB8101A2EB810207FB02622E
:101150002046D2F8841003F0C9F80121484606F071
:101160004FFA204603F06AF810215F4806F048FA6B
:10117000204603F063F80F215C4806F041FAD8F8E6
:101180001C10204603F0B2F81021524806F038FA3D
:10119000D8F82410204603F0A9F80D214E4806F097
:1011A0002FFAD8F82C10204603F0A0F809214B485C
:1011B00006F026FADBF80020133285FB0230D11747
:1011C000C1EBE00101EB8101A2EB810207FB0262AE
:1011D000204692F8B01003F089F8204603F02EF86C
:1011E00015213F4806F00CFADBF80020133285FB8E
:1011F0000230D117C1EBE00101EB8101A2EB8102CA
:1012000007FB02622046D16B03F070F850460121C3
:1012100006F0F6F9DBF80020133285FB0230D11717
:10122000C1EBE00101EB8101A2EB810207FB02624D
:101230002046116C03F05AF84846012106F0E0F907
:101240001221284806F0DCF9DBF80020133285FB78
:101250000230D117C1EBE00101EB8101A2EB810269
:1012600007FB02622046D2F8801003F03FF8504698
:10127000012106F0C5F9DBF80030133385FB0325A7
:10128000DA17C2EBE50505EB8505A3EB850307FB44
:1012900003662046D6F8881003F028F80121484656
:1012A00006F0AEF9204602F0C9FF0F21104806F003
:1012B000A7F9204602F0C2FF9620BDE8F84F03F0E0
:1012C000D5BE00BF8008FF1F6483010067666666A5
:1012D0002813FF1F74830100888301009883010095
:1012E000A4830100C0830100D4830100E8830100CE
:1012F000F88301000824FF1FBC830100AC9A0100A1
:1013000010B50446FFF75AF90E4B236000236363C0
:1013100084F87C3084F87D3084F87E30E364636543
:101320002365A365E36663672367A367E3632364B9
:101330006364A364E3616362E3622362A362236381
:10134000204610BD108401002DE9F04F04462DED1C
:10135000028BC26C436DA56D006DCF4EDFF858A3B4
:10136000C2F13202323B323DC0F1320087B0E2645A
:101370006365A565206510F0E9F9CDE9000128460F
:1013800010F0E4F99DED001B41EC100B0EF02CFB6E
:10139000002251EC100BC14B10F03EFABCA3D3E974
:1013A000002310F063FB0022BD4B10F081F810F019
:1013B000E3FCE061E06C10F0C9F9CDE90001606D7B
:1013C00010F0C4F99DED001B41EC100B0EF00CFB6E
:1013D000E36903F5B47383FB06011944DA174FF48C
:1013E000B475C2EB212205FB123351EC100BE36103
:1013F0000022AA4B10F010FAA5A3D3E9002310F0A5
:1014000035FB0022A64B10F053F810F0B5FC47193D
:1014100087FB06233B44FA17216DA06DC2EB232303
:1014200005FB137301FB01F1236200FB001010F0B8
:101430008DF941EC100B0EF0D9FA51EC100B10F0B5
:101440009BFCE36C626DE06203FB03F002FB0200B5
:1014500010F07CF941EC100B0EF0C8FA51EC100BB7
:1014600010F08AFCDAF800308E4A8F4D2063133377
:1014700082FB0321DA17C2EBE10202EB8202A3EB4B
:101480008203B42202FB03F3E06C55F8038090451D
:10149000C8BFA8F5B47810F059F9C8F1000307EEF9
:1014A000903ADFED826A9FED827AF8EEE77A06469F
:1014B00067EEA67A0F46C7EE876A16EE900A10F01E
:1014C00057F941EC100B41EC180B0EF0CDF9606DA3
:1014D0008DED000B10F03AF9B0EE480AF0EE680A14
:1014E000804689460EF020FADDE900233046394671
:1014F0008DED020B10F090F9DDE90223CDE9040136
:101500004046494610F088F902460B46DDE90401E1
:101510000FF0CEFF10F030FCDDE90223E066394623
:10152000304610F079F9424606460F464B46DDE953
:10153000000110F071F902460B46304639460FF0B3
:10154000B9FF10F019FC6067206D10F0FFF88046BD
:10155000A06D894610F0FAF84B46CDE904014246E9
:10156000DDE9000110F058F9DDE9042306460F46D5
:10157000DDE9020110F050F902460B4630463946CB
:101580000FF096FF10F0F8FB4B468346424620676B
:10159000DDE9020110F040F9DDE9042306460F46BB
:1015A000DDE9000110F038F902460B4630463946B5
:1015B0000FF080FF10F0E0FB0646A067584610F0E1
:1015C000C5F8CDE90001304610F0C0F89DED001BD4
:1015D00041EC100B0EF008FA002251EC100B2F4BCF
:1015E00010F01AF92AA3D3E9002310F03FFA0246BB
:1015F0000B4600202A490FF05BFF10F0BDFB606234
:10160000E06E10F0A3F8CDE90001606F10F09EF8D5
:101610009DED001B41EC100B0EF0E6F9002251ECA1
:10162000100B1E4B10F0F8F819A3D3E9002310F0AB
:101630001DFA02460B46002019490FF039FF10F041
:101640009BFBDAF800E01B4BD4F88C10A0620EEB89
:10165000CE0203EB8203B422597602FB0E53666F6F
:10166000626DD4F828A0206DA16D9A63E26EC3F874
:101670008460266F0092C3F88060E26CA66FE76911
:10168000D4F82090C3F88860666A5A6316E000BFF9
:1016900000000060B81E0940B7600BB600806640CD
:1016A00000805640676666662813FF1FC3F54840F2
:1016B000000034433821FF1F0824FF1F009AD8631D
:1016C0001964DA67C3F818A0DF60C3F81090E06B04
:1016D000E26A216B5E617428DA61196227D0226C9C
:1016E000742A24D0012283F8AF20636CB421742BB8
:1016F00001FB0E5127D0A36C742B24D0012381F859
:10170000B030D4F8801001294FF0B40101FB0E5520
:1017100024D0C5F82490AE6285F8AD20EF622E6328
:1017200085F8AE3007B0BDEC028BBDE8F08FB42376
:1017300003FB0E53002283F8AF20636CB421742B9B
:1017400001FB0E51D7D1002381F8B030D4F88010BE
:1017500001294FF0B40101FB0E55DAD16F62AE6280
:1017600085F8AD30C5F82C90C5F830A085F8AE20CE
:1017700007B0BDEC028BBDE8F08F00BFF8B50446A2
:10178000002504270126606803681B699847002824
:1017900034DD606803685B6998476928C4F88C0089
:1017A0000BD0732894F87D300BD0002BEBD0636BFB
:1017B000E3B9E06301336363E5E784F87D60656363
:1017C000E1E784F87C5067635BB104F13C000FC82B
:1017D00084F87C60E06461652265A3652046FFF7BC
:1017E000B3FD84F87E6084F87D50CCE7012B06D0F1
:1017F000022B06D0032B08BFA064DBE7F8BD2064F2
:10180000D8E76064D6E700BF10B50446006808B1A9
:1018100003F05EF9204610BD2DE9F041002182B0B1
:10182000272003F01DFC0021262003F019FC1020C6
:1018300003F04CF9372300930B2204230C210546B7
:10184000FFF78EFA102003F041F987230093182246
:10185000052319210646FFF783FA102003F036F915
:10186000E12300931A2202231B210746FFF778FA8F
:10187000102003F02BF940F2311300931C220323B4
:101880001D218046FFF76CFA802003F01FF93246D5
:1018900029463B46CDF800800446FFF709F8174B70
:1018A00030201C6003F012F90446FFF753FB144B81
:1018B00028201C6003F00AF94FF4614211490446E4
:1018C000FFF706FB104B90201C6003F0FFF84FF46D
:1018D00096420E490446FFF713FD0D4B20201C6075
:1018E00003F0F4F84FF4E1320A490446FFF782FBB3
:1018F000094B1C6002B0BDE8F08100BF6C2FFF1FD8
:10190000542FFF1F5008FF1F5C2FFF1F6008FF1F91
:10191000702FFF1F4008FF1F582FFF1F70B5272093
:1019200003F090FB0C4B0D4C18602620256803F04B
:1019300089FB0B4BC5F88000186803681B68984743
:10194000084B186803681B68984720680368BDE85F
:1019500070401B68184700BF502FFF1F702FFF1FDC
:10196000542FFF1F5C2FFF1F064B074A074910B477
:1019700000241C605C609C6018465DF8044B06F017
:10198000EDBA00BF602FFF1FF806FF1F0918000007
:1019900010B4034C0460416082605DF8044B7047F2
:1019A0002C84010001B970470E4A0F4B1268816800
:1019B00070B5044646680D68B42000FB0233084643
:1019C000C3F89C40C3F8A410C3F8A0602B689847E4
:1019D000236820461B68984760680368BDE870402C
:1019E0001B6818470824FF1F2813FF1F2DE9F0412B
:1019F0001C2088B003F06AF8012215210446FEF786
:101A0000F1FD1C20049403F061F80122102104462A
:101A1000FEF7E8FD1C20059403F058F801220F2181
:101A20000446FEF7DFFD1C20069403F04FF8012268
:101A300017210446FEF7D6FD1020079403F046F860
:101A400004AC05460FCC28601C20EB606960AA60DE
:101A500003F03CF8012214210446FEF7C3FD1C20CC
:101A6000049403F033F8012211210446FEF7BAFD75
:101A70001C20059403F02AF801220E210446FEF7EB
:101A8000B1FD1C20069403F021F801221621044622
:101A9000FEF7A8FD1020079403F018F804AE0446E2
:101AA0000FCE002620606160A260E36010200196E6
:101AB0000296039603F00AF80346D5F804E0286876
:101AC000AF68E968C3F804E003F1100218609F6092
:101AD000D96010200193049605960696039202920F
:101AE00002F0F4FF034667682068A668E1681860A2
:101AF00003F110025F609E60D96084200493069217
:101B0000059202F0E3FF04AA01A9074600F036FDA2
:101B1000582002F0DBFF804600F086FE302002F005
:101B2000D5FF42463946064600F0C6FA524B0498A5
:101B30001E6008B102F0CCFF019808B102F0C8FFA6
:101B40000026102001960296039602F0BFFF03467E
:101B50002A686868AF68E9681A60586003F1100283
:101B60009F60D96010200193049605960696039213
:101B7000029202F0ABFF034622686068A668E16843
:101B80001A60586003F110029E60D96084200493AB
:101B90000692059202F09AFF04AA01A9074600F0F6
:101BA000EDFC582002F092FF804600F03DFE182028
:101BB00002F08CFF42463946064600F089F92F4B69
:101BC00004981E6008B102F083FF019808B102F08A
:101BD0007FFF0026102001960296039602F076FF02
:101BE00003462168626819600190E168A0685A6044
:101BF000986003F11002D9601020049605960696AD
:101C00000392029202F062FF034621681960626843
:101C1000A068E1685A60986003F11002D9608420DE
:101C200004930692059202F051FF04AA01A9074607
:101C300000F0A4FC582002F049FF804600F0F4FDBB
:101C40002C2002F043FF42463946064600F036F8A3
:101C50000B4B04981E6008B102F03AFF019808B1DE
:101C600002F036FF204602F033FF284602F030FF34
:101C700008B0BDE8F08100BF782FFF1F742FFF1F51
:101C80007C2FFF1F10B40C4B83B019680191019C8D
:101C90001B68009300990462002300224162C36024
:101CA000036180F8283080F8293042618261C26186
:101CB00003B05DF8044B7047A42FFF1F10B582B02E
:101CC0000446FFF765FE074B07491A680192019A1F
:101CD0001B680093009B216020462262636202B071
:101CE00010BD00BFA42FFF1F3C840100634BF0B563
:101CF0001B681A6ABE2A83B005466DDCDC699FED5D
:101D0000607ADFED606A04F1550307EE903AF8EE71
:101D1000E77A67EE877A87EEA67A80ED057A17EE86
:101D2000100A0FF025FD41EC100B0DF09DFD57EC56
:101D3000106B0022002310EE100A39460FF0FCFF52
:101D4000002800F097803046394610F03DF8552CB9
:101D500007EE900AA86114D84B4B4C4A19684C48BE
:101D600001F1130382FB0321DA17C2EBE10202EB5C
:101D70008202A3EB8202B42303FB02031B6B1D2B25
:101D800051DD6FF48473E3185F2B14D83E4B3F4A48
:101D900019683F4801F1130382FB0321DA17C2EBF4
:101DA000E10202EB8202A3EB8202B42303FB0203F3
:101DB0001B6B1D334ADAA4F15603B22B0AD8B42C9C
:101DC00025DC04F11E01334B4FF4A0721868002388
:101DD000FEF7ECFD03B0F0BD2F4B01211868FFF7B3
:101DE000E1FD6B681B79ABB16B6A2C4A12680192FA
:101DF000019A41F28831D31A8B42EBD995F82830F9
:101E0000002BE7D0012385F8293003B0F0BDA4F101
:101E10001E01D8E7214A13680093009B6B620121E1
:101E200085F82810E2E7DFED1E6A9FED1E7A194B58
:101E300067EEA67A186867EE877A0023FDEEE77AE8
:101E4000552117EE902AFEF7B1FDC3E7DFED146AC6
:101E50009FED147A0F4B67EEA67A186867EE877AC3
:101E60000023FDEEE77A40F2091117EE902AFEF703
:101E70009DFDAFE7304607F1004166E75C2FFF1F8D
:101E8000DB0F4940000034430824FF1F6766666685
:101E90002813FF1F6C2FFF1F742FFF1FA42FFF1F7E
:101EA0000000A0433333B33F054B1B6893F8243045
:101EB0001BB980680368DB681847FFF717BF00BFCE
:101EC0005C2FFF1F002300224261C3600361704743
:101ED00010B50446FFF75CFD044B2360002200238D
:101EE0006261E3602361204610BD00BF4C840100A5
:101EF000134B196830B4134C134D133184FB013468
:101F0000CA17C2EBE40303EB8303A1EB8303B42200
:101F100002FB035330BC9A685B68822ACCBF28223C
:101F20000022B42BCCBFA3F5B47119460029CCBF55
:101F30009B189B1A002BB8BF03F5B473036170475D
:101F40000824FF1F676666662813FF1F70B53E4EA4
:101F50003E4B32683E4D133283FB0231D317C3EB45
:101F6000E10303EB8303A2EB8303B42101FB0351E1
:101F700004464A68A2F11500B0F5A47F09D9896822
:101F8000BE29C4BF002121614FF09601D8BF226154
:101F9000E1605A3AB42A44D9B42202FB0353596887
:101FA000A1F10B03122B04D801F114029623226134
:101FB000E360A1F11E030E2B04D801F12302962346
:101FC0002261E360A1F12D032C2B04D801F128023A
:101FD00096232261E3606FF487728B182C2B04D850
:101FE000A1F1460296232261E360A1F59E730E2BB8
:101FF00004D8A1F1460296232261E3606FF4A57331
:10200000CB18122B0AD83C3996222161E260114B81
:10201000BDE8704018680023FEF7C8BC2169E2687B
:10202000F5E72046FFF764FF3268084B133283FB65
:102030000213D117C1EBE30303EB83039621A2EB59
:102040008303E160A8E700BF0824FF1F6766666698
:102050002813FF1F6C2FFF1F0F4B104A196801F147
:10206000130382FB0312D917C1EBE20210B402EB97
:1020700082020B4CA3EB8202B42303FB024393F8CE
:10208000B1302BB980685DF8044B03689B68184732
:102090005DF8044BFFF75ABF0824FF1F67666666AA
:1020A0002813FF1F00234361036283624362C362FC
:1020B000C3600361C361704710B50446FFF768FC55
:1020C000064B2360002363612362A3626362E362C1
:1020D000E3602361E361204610BD00BF5C84010022
:1020E0005A4B19682DE9F04F594C5A4D5A4F13313C
:1020F00084FB0134CA17C2EBE40303EB8303A1EBB7
:102100008303B42202FB03532DED028B5A68B432D1
:1021100082FB07455419D1174FF4B47BC1EB24243B
:1021200005460BFB1424A4F15A0683B098686E612F
:102130000FF00CFB8046304689460FF007FB41EC60
:10214000100B41EC180B0DF08FFB404653EC102B9D
:1021500049460FF061FB0FF00FFEB0EE480AF0EEBB
:10216000680A286282460DF0DFFB404653EC102BD4
:1021700049460FF051FB0FF0FFFD04F58774C6EBE5
:102180000B0E84FB072380468EFB07010EEB01003C
:102190004FEAEE77E118E317C3EB2123C7EB2020CA
:1021A0000BFB10E00BFB134B5845A8BF58460F28FC
:1021B0002861A8BF0F20B42EE86094BF8019301AA0
:1021C000C5F82480A8610FF0C1FA41EC100B41EC76
:1021D000180B0DF049FB002053EC102B1F490FF09A
:1021E00067F90FF0C9FDB0EE480AF0EE680AA86280
:1021F00004460DF099FB002053EC102B17490FF00B
:1022000057F90FF0B9FDE862C0EB08000FF09EFA35
:10221000CDE90001C4EB0A000FF098FA9DED001B18
:1022200041EC100B0DF0E0FB51EC100B0FF0A4FD96
:102230000B4B00F15A011868E9610023322203B008
:10224000BDEC028BBDE8F04FFEF7B0BB0824FF1FCA
:10225000676666662813FF1FB7600BB60000244050
:102260006C2FFF1F0F4B104A196801F1130382FBFB
:102270000312D917C1EBE20210B402EB82020B4C3D
:10228000A3EB8202B42303FB024393F8B1302BB9D2
:1022900080685DF8044B03689B6818475DF8044B41
:1022A000FFF71EBF0824FF1F676666662813FF1F1F
:1022B000F8B5036806461B6898470421334805F0C3
:1022C0009FF9B568F768BD4213D055F8044B2368F1
:1022D00020461B689847236820461B69984701469B
:1022E0002B4802F003F803212A4805F089F9AF4290
:1022F000EBD10721284805F083F90521274805F08F
:102300007FF97569B769BD4213D055F8044B23684E
:1023100020461B689847236820461B69984701465A
:102320001B4801F0E3FF03211A4805F069F9AF42A9
:10233000EBD1174801F082FF06F13C0406F14C0591
:1023400054F8041F124801F0D1FF0321114805F091
:1023500057F921690E4801F0C9FF0D4801F06EFFE1
:10236000AC42EDD1F16A0A4801F0C0FF084801F023
:1023700065FF316B064801F0B9FF054801F05EFFCB
:102380000348BDE8F84001F059BF00BF7484010064
:102390008008FF1FFC8201007C840100848401000E
:1023A00010B590F8243082B043B190F880309C078B
:1023B00024D502234363002380F8243090F825308D
:1023C00043B190F88030DA0713D5012383630023EB
:1023D00080F825301B4B426F1B680193019B9B1AB1
:1023E000F92B10D9002380F880308363436302B057
:1023F00010BD5B0721D504238363E8E7190718D5CF
:1024000008234363D7E7104A104B1268B42101FB3D
:1024100002330446D3F89C30986803689B68984759
:1024200001232371FA22DC21062001F0C3FF02B050
:1024300010BD436B002BC1D0BDE7836B002BC9D00F
:10244000C5E700BFA42FFF1F0824FF1F2813FF1F8D
:1024500070B58568C6680023B54282B00446C36281
:10246000036303717ED055F8040B03689B6898479B
:10247000B542F8D16569A669B54278D055F8040B24
:1024800003689B689847B542F8D1A668E3689E4206
:1024900017D0354600E0A568751B56F8040B20627E
:1024A0000368AD1025671B699847E368B0F5967F10
:1024B00005F11005D4BF00200120B34244F82500E7
:1024C000E9D16669A3699E4217D0354600E0656987
:1024D000751B56F8040B20620368AD1025671B6955
:1024E0009847A369B0F5967F05F11405D4BF002085
:1024F0000120B34244F82500E9D1E66A206B04F1DB
:102500003C05002355F8041F2A6999409A4001337D
:10251000042B46EA010640EA0200F3D1002EE662EF
:1025200020631CDD144A616F13680093009B5B1AE3
:10253000FA2B0ED813680193019B636794F88030DF
:102540003043184384F880002046FFF729FF02B08B
:1025500070BD012384F8243084F82530EAE7002890
:10256000E0DCEBE745698669AE4287D1C5E7A6683E
:10257000E368B3428DD1C0E7A42FFF1F70B5144BA1
:1025800003600025044616468560C5600561456107
:102590008561C5610830FEF73FF8314604F114004B
:1025A000FEF73AF865646565A564A565E564E565CB
:1025B00084F8805084F8245084F8255084F82850FA
:1025C0006563A5632571256425656567204670BD33
:1025D0006C840100314B2DE9F0471E68304FB42365
:1025E00003FB0673044693F8AF208AB993F8B05002
:1025F000002D4DD01D6CD96B85EAE572A2EBE5721A
:10260000C2F13203002DA8BF5B42C1F1000A0FE006
:1026100093F8B02062BB9D6B5A6B85EAE573A3EB20
:10262000E573C3F13203002DA8BF5B42C2F1000A7B
:102630001D446D4250460FF089F880462846894671
:102640000FF084F8B42303FB06760023C6F88CA0B1
:10265000C6F89050C4E90289C4E90801C4E90689B2
:10266000C4E90C016364A36484F84C30BDE8F087CE
:10267000D96B5A6B9D6B1B6C01EB020A0AEBDA7A81
:102680004FEA6A0ACAF1000A1D4450466D42D2E779
:102690000020002180468946AA46D3E70824FF1F70
:1026A0002813FF1F00230022C0E90623C0E90C23E2
:1026B000012380F84C307047704700BFFFFFFFFFD9
:1026C0002DE9F0474FF0000A0446C0F83CA0C0F8DE
:1026D00040A0406C0FF03AF802460B46D4E90601E0
:1026E0000EF0E8FEC4E90601A06C0FF02FF80246D8
:1026F0000B46D4E90C010EF0DDFEC4E90C01206D9F
:1027000000F0CEFF606D00F0CBFF94ED041B94ED64
:102710000A0B0DF069F9002251EC100B304B0FF051
:102720007BF82DA3D3E900230FF0A0F902460B4656
:1027300000202C490EF0BCFE0FF01EFBD4E9042350
:1027400000F5B475194610460FF066F8D4E90A8909
:1027500006460F4642464B46404649460FF05CF857
:1027600002460B46304639460EF0A4FE41EC100BF3
:102770000DF03CF951EC100B0FF0FEFA07EE100AC9
:10278000DFED197AD4ED0E6ADFED185A9FED186A65
:10279000184A194CB8EEC77AF8EEE66A67EE277A5F
:1027A00085FB022367EEA57AEA1887EEA67AEB1777
:1027B000C3EB22224FF4B47101FB1251534620683F
:1027C000BDE8F04777EE067AFDEEE77A17EE902A3D
:1027D000FEF7ECB8AFF3008000000060B81E0940BF
:1027E00000806640008056C03333D33F0000F04283
:1027F00000000000B7600BB66C2FFF1FF0B4074F4E
:10280000074D002600240122C0E90667C0E90C45F7
:1028100080F84C20F0BCFFF753BF00BF000024C07D
:1028200000003440FFFFFFFF70B52DED088B9FEDDA
:10283000428B494B036037220023044682B08263F7
:1028400080ED028B80ED048B80ED068B80ED088B94
:1028500080ED0A8B80ED0C8BC36303644364836457
:1028600080F84C30E82002F031F9B0EE482AF0EE62
:10287000682AB0EE481AF0EE681A9FED319B9FED82
:1028800032BBB0EE490AF0EE690A9FED31AB01258B
:1028900004F1180304F11002064604F10801009542
:1028A00000F0F0FEB0EE4B1AF0EE6B1AB0EE4A0AF2
:1028B000F0EE6A0A2665304601F038F82946206DA8
:1028C00001F07EF8206D022180ED269B01F004F8D6
:1028D000E82002F0FBF8B0EE482AF0EE682AB0EEED
:1028E000481AF0EE681A04F1300304F12802064693
:1028F00004F12001B0EE490AF0EE690A009500F0FB
:10290000C1FEB0EE4B1AF0EE6B1AB0EE4A0AF0EED2
:102910006A0A3046666501F009F82946606D01F0E3
:102920004FF8606D022180ED269B00F0D5FF204618
:1029300002B0BDEC088B70BD00000000000000007C
:10294000000000000000F03F0000000000004940CF
:1029500000000000000049C094840100F8B504465E
:10296000AE4801F06BFC1B21AD4804F049FEAB48BA
:1029700001F064FC2921AB4804F042FEA74801F0B5
:102980005DFC3821A84804F03BFEA44801F056FC49
:102990001921A64804F034FEA04801F04FFC9F48DE
:1029A00001F04CFC0B21A24804F02AFE9B4801F0E8
:1029B00045FC22219F4804F023FE984801F03EFC8C
:1029C0000B219D4804F01CFE944801F037FC0A21BD
:1029D0009A4804F015FE914801F030FC0D2198480A
:1029E00004F00EFE8D4801F029FC0A21954804F000
:1029F00007FE8A4801F022FC0921934804F000FEFA
:102A0000864801F01BFC0D21904804F0F9FD834835
:102A100001F014FC1A218E4804F0F2FD7F4801F009
:102A20000DFC13218B4804F0EBFD7C4801F006FC03
:102A30002021894804F0E4FD784801F0FFFB1F21C4
:102A4000864804F0DDFD754801F0F8FB2AE0312BE3
:102A500000F09F80322B00F0A480332B00F09C818B
:102A6000342B00F0A181352B00F0A681362B00F02D
:102A7000B381372B00F0B881382B00F0BD81752B66
:102A800000F0C281732B00F09F810F21744804F085
:102A9000B7FD624801F0D2FB0023A37004F086FD6D
:102AA000002827DD04F046FD20705C4801F0C6FBDD
:102AB00005216C4804F0A4FD584801F0BFFB2078C4
:102AC00004F022FE554801F0B9FB0121664804F0EC
:102AD00097FD524801F0B2FB2378302BB7D10E217D
:102AE000624804F08DFD4D4801F0A8FB04F05EFD46
:102AF0000028D7DC5E4F5F4E5F4D2378303B452B7F
:102B000060D8DFE813F0DD00DB00D900C3007E00F1
:102B1000730064005F0028015F005F005F005F00DA
:102B20005F005F005F005F005F005F005F005F00AD
:102B30005F005F005F005F005F005F005F005F009D
:102B40005F005F005F005F005F005F005F005F008D
:102B50005F005F005F005F005F005F005F005F007D
:102B60005F005F005F005F005F005F005F005F006D
:102B70005F005F005F005F005F005F005F005F005D
:102B80005F005F005F005F005F005F00EA005F00C2
:102B90005B003821394804F033FD204801F04EFB3A
:102BA0007CE73421364804F02BFD1C4801F046FB3D
:102BB00074E703F0FFF9C0B204F0A6FD03F0EAF9F0
:102BC0000028F6D104F0F2FC002896D0F8BDFDF7FD
:102BD000A1FD2C4B186803685B689847642002F0DD
:102BE00045FA04F0E3FC002887D0EFE7264B18688D
:102BF00003685B68984704F0D9FC00283FF47DAF78
:102C0000E4E700231A4619462868FDF7D3FE04F0CE
:102C1000CDFC00283FF471AFD8E700BF8008FF1F4C
:102C2000A4840100C0840100EC8401002885010017
:102C300044850100508501007485010080850100F4
:102C40008C8501009C850100A8850100B4850100E8
:102C5000C4850100E0850100F485010018860100AB
:102C6000DC87010038860100948301004086010062
:102C70005C2FFF1F542FFF1F6C2FFF1F508601007A
:102C80008C860100702FFF1F582FFF1F2B6898693B
:102C9000FEF79EF82B68D869FEF79AF82B68186A39
:102CA000FEF796F82B68586AFEF792F804F07EFC5F
:102CB00000283FF422AF89E730688CE738688AE75C
:102CC0003321554804F09CFC544801F0B7FA002326
:102CD000A370BDE8F84004F047BD2321504804F03C
:102CE0008FFC4E4801F0AAFA04214E4804F088FCFB
:102CF0004A4801F0A3FA012003F072F840F2DC50D8
:102D000002F0B4F90421484804F07AFC434801F089
:102D100095FA022003F064F840F2DC5002F0A6F9C4
:102D20000421424804F06CFC3C4801F087FA04207E
:102D300003F056F840F2DC5002F098F9002003F05E
:102D40004FF840F2DC5002F091F904F02FFC00281B
:102D50003FF4D3AE3AE7364B36491A68364802F1AB
:102D6000130381FB0321DA17C2EBE10202EB8202BB
:102D7000A3EB8202B42303FB0203D3F89C30586810
:102D800003685B689847C82002F070F904F00EFCF5
:102D900000283FF4B2AE19E73D21284804F030FC8A
:102DA0001E4801F04BFA79E62D21254804F028FC55
:102DB0001A4801F043FA71E61321224804F020FC7E
:102DC000164801F03BFA69E623211F4804F018FC7D
:102DD000124801F033FA61E60B211C4804F010FCA4
:102DE0000E4801F02BFA59E62A21194804F008FC94
:102DF0000A4801F023FA51E62321164804F000FCAA
:102E0000064801F01BFA49E61121134804F0F8FBCB
:102E1000024801F013FA41E6EC8701008008FF1F29
:102E200020880100448801004C880100548801007A
:102E30000824FF1F676666662813FF1FC48601000B
:102E40000487010034870100B8870100488701002A
:102E50005487010080870100A4870100002070478B
:102E600090F8392090F83800101A704790F83830F0
:102E700090F839209A4286BF1B18187E4FF0FF3019
:102E8000704700BF704700BF38B50546B0F85E0018
:102E900090B195F85D301446C3F1210294420CD8EC
:102EA00005F13B001844224601F0FCFC95F85D302A
:102EB000234485F85D30204638BD01201446287132
:102EC000EEE700BFB0F85E306BB190F85D30202BBC
:102ED00007D8C218013380F85D30012082F83B101A
:102EE0007047012303710020704700BF002342692F
:102EF00080F8383080F8393080F85C3080F85D3008
:102F000080F85E3080F85F3006CA30B40D6804691E
:102F100043662A4383660A60A370426990F8613071
:102F20001649146813441D7A5B7B01EBC5051B022F
:102F30006D6803F4E06343F064032B6090F8623043
:102F400013449D7CDB7D01EBC5011B02496803F442
:102F5000E06343F064030B6021685368194205D0B5
:102F600003692C225A70036904229A710369202292
:102F70005A71036980229A7030BC7047708A0100D0
:102F800038B50269D478E4B2E106054624D51023A9
:102F9000D37063061FD504F0040404F0FF03002C73
:102FA0005AD042496A6E00230B7085F85D30002AC2
:102FB00066D0904795F85D30002B61D02B69D02208
:102FC0009A702B6995F83B201A712B69012285F8BC
:102FD0005C200222DA7038BD04F0400303F0FF00E9
:102FE000002BD8D19379DBB203F0600160294ED079
:102FF000937803F0100303F0FF01B3B114F0010460
:1030000037D195F85C3095F85D1099424BD9591C31
:103010002B4485F85C1093F83B3013712B69D02258
:103020009A702B690222DA70D5E785F860109379DF
:1030300043F0200393712B6995F839101A791F29F1
:10304000D2B2C6D8194800780028C2D06818013119
:1030500085F839100276BCE72A6985F83930C02333
:1030600093702B69114A1979012111700222DA70CB
:10307000B1E7C02393702B691A790222DA70AAE7AC
:103080000122002385F85D2085F83B3096E703F0A8
:10309000DF039371AB6E23B185F8380095F83900E2
:1030A00098472A69A4E71471B8E700BF802FFF1F73
:1030B0002DE9F047374FDFF8E0903B68026982B0B6
:1030C00006460093DDF800800021C825D3789B06D2
:1030D0005BD53B680193019BC8EB03030F2BF5D92C
:1030E00049B1102BF2D000209070336980229A7081
:1030F00002B0BDE8F087726996F86130134405218B
:10310000187A01F0ADFF726996F86130134401211D
:1031100093F812A0504601F0A3FF09240021504665
:1031200001F08AFF2B46013BFDD10121504601F001
:1031300083FF2B46013BFDD1013CEFD1706996F82E
:10314000611001444FF4C8720C7A4B7B09EBC40147
:103150001B02496803F4E06343F064030B6096F8D4
:1031600062300344997CDB7D09EBC1011B02496895
:1031700003F4E06343F064030B60013AFDD132696C
:10318000D3789B064FF00101A3D4012002B0BDE823
:10319000F08700BFA42FFF1F708A0100F0B50369FC
:1031A0001222DA700269937803F0200385B0044696
:1031B0000D46002B5ED0B42393703C4922690B6806
:1031C0000093009E05E00B680193019B9B1B042B61
:1031D00042D8D37803F0200303F0FF00002BF2D095
:1031E00094F85D30002B31D04FF0000E4FF0020C00
:1031F00004EB0E0393F83B3013710B680393039FAA
:10320000206907E09B060DD50B680293029BDB1B30
:10321000052B28D8C378DBB203F0020202F0FF06C8
:10322000002AEFD080F803C02669F378DBB2DF060E
:1032300032462DD49F062BD5DB0731D40EF1010E7B
:1032400094F85D305FFA8EFE7345D1D800201DBB27
:10325000002384F85E3004E09070236980229A7025
:10326000042005B0F0BD86702369802204209A7086
:1032700005B0F0BD03F0FF06FFF71AFF10B90420F8
:1032800005B0F0BD236984F85F60B0229A7094E7BE
:103290008023B3700420DAE726698023B370D7E770
:1032A000BEF1000F0CBF02200320F6E7A42FFF1F82
:1032B0002DE9F04106690025122780F8385080F882
:1032C0003950F770D0F810C09CF802E00EF0200ED4
:1032D00088B00446884615461E46BEF1000F49D008
:1032E000B4238CF80230784B21691A680092DDF81B
:1032F00000E006E01A6801920198CEEB0000042875
:1033000030D8C87800F0200000F0FF070028F1D086
:103310004FEA480242F00102D2B20A711A680292E0
:10332000DDF808E0206906E01A6803920399CEEB05
:10333000010105292AD8C17801F0020101F0FF0737
:103340000029F1D04FF0020C80F803C02269D17837
:1033500011F0110722D12DBB002E0CBFA02380231A
:10336000937003E08F70236980229A70384608B00A
:10337000BDE8F0810EF0FF07FFF79AFE0028F5D0B8
:10338000236984F85F70B0229A70ACE78770236974
:10339000802238469A7008B0BDE8F081802393708F
:1033A0000027E3E7012D75D0A021917021690A79EA
:1033B000BE4667464FF0A80C1A680492049805E0D0
:1033C0001A680592059A121A052A4AD8CA7802F094
:1033D000020202F0FF08002AF2D0CF702169CA78F9
:1033E000D2B212F0100F08465AD1920658D5013DBC
:1033F000EDB2012D49D0BEF11F0F3BD90A79012D45
:10340000DAD11A680692069D05E01A680792079AB3
:10341000521B052A46D8C27802F0020202F0FF01D0
:10342000002AF2D00223C3702269D378DBB2D90616
:103430003AD49B0634D5B023BEF11F0F93703FD80A
:10344000226904EB0E0312791A760EF1010E5FFA6F
:103450008EFE16B1236980229A7084F839E077468F
:1034600084E781F80280236980229A70774684F885
:1034700039E07BE704EB0E0291F8048082F81880B3
:103480000EF1010E5FFA8EFEB9E781F802C02169E4
:103490000846B0E7A82191702069BE460279B0E7DE
:1034A000774663E78170DEE71021C823D170013BC6
:1034B000FDD12269937803F0F7037746937055E7BF
:1034C00023691B79C5E700BFA42FFF1F0148FFF741
:1034D00057BD00BF6807FF1F0148FFF751BD00BF80
:1034E000D407FF1F0148FFF74BBD00BFFC06FF1FBD
:1034F0002DE9F0470C99C0F8A410DDE908899DED8D
:103500000A7B1D46A1F10103B3FA83F314465B095C
:10351000824680ED1C7BC0E91A8980F8E130C0E961
:103520001845D0F8C8000EF001F900221C4B0EF02F
:103530009DFA06460F4632463B4640464946CAE992
:103540001E450EF069F9804689463B463246CAE977
:103550002089DDE90A010EF089FADAF8A030064682
:103560000F46012BCAE9226717D122462B460020BD
:1035700000210DF09DFF4246CAE91E014B46002086
:1035800000210DF095FF3246CAE920013B4600209C
:1035900000210DF08DFFCAE92201BDE8F08700BFD0
:1035A00000408F40FFFFFFFF2DE9F04F2DED048B12
:1035B000B0EE418AF0EE618AB0EE429AF0EE629A85
:1035C00089B08A46142107461E46934659EC108B53
:1035D00000F02CFA29A3D3E900239FED257B0024DA
:1035E000002500211798C7F8B0606426C7E9362384
:1035F000C7F8A00087F8E010C7F8ACB0C7F8A8A0DB
:1036000087ED267BC7E93445C7F8C86022462B46BC
:10361000404649460EF072FBD0B922462B4651EC8B
:10362000180B0EF06BFB98B922462B4651EC190B88
:103630000EF064FB60B9169B04938DED029B8DED3B
:10364000008B42464B463846FFF752FFD7F8C8601A
:10365000094B1B680793079B38469E1BC7F8B4604D
:1036600009B0BDEC048BBDE8F08F00BFAFF3008064
:10367000000000000000F03FA42FFF1F000000002A
:1036800000E06F4010B582B0049C019401240094C6
:103690000446FFF789FF204602B010BDFFFFFFFF81
:1036A0002DE9F04F90F8E0508BB0002D00F0DA805B
:1036B000854AD0F8B43012680992DDF824A0D0F819
:1036C000C820C3EB0A039342C0F0CC80D0F8A820F6
:1036D000D0F8B03092ED007B0446D3E9000153EC02
:1036E000172B8DED007B0DF0E3FE94F8E230804661
:1036F0008946E3B172A3D3E900230EF0FFFA38B193
:10370000404649460022714B0DF0D4FE8046894662
:1037100000226F4B404649460EF00EFB38B1404642
:1037200049460022694B0DF0C3FE80468946D4E924
:103730003023DDE900010DF0BBFED4E92023CDE903
:103740000401404649460EF067F8D4E92E230DF0F7
:10375000B1FE94F8E1B006460F46C4E92E67BBF10E
:10376000000F0FD1D4E91E23DDE904010EF054F857
:1037700002460B46304639460DF09AFE06460F4685
:10378000C4E92E6794ED367B32463B4651EC170B6D
:103790008DED027B0EF0B2FA002868D194ED347BF7
:1037A00051EC170B32463B4617EE106A0F460EF0EF
:1037B000C3FA18B147EC176B84ED2E7BBBF1000FF9
:1037C0005CD040464946D4E91E230EF025F88046D9
:1037D0008946D4E9266700223E4B304639460EF032
:1037E00097FA00284FD1DDE904010EF0EDFA00EE62
:1037F000100A204600F032F910EE100A0DF0B8FF62
:10380000D4E93667C4E92401D4E922230EF004F890
:1038100002460B46D4E92E010DF04AFE42464B46C5
:103820000DF048FE32463B46804689460EF084FA4B
:1038300050B9D4E934674046494632463B460EF01B
:103840005DFA08B946464F469DED007BD4F8AC3092
:103850002846C3E9006784ED307BC4F8B4A00BB000
:10386000BDE8F08F002528460BB0BDE8F08F9DED38
:10387000027B84ED2E7BBBF1000FA2D14FF000083C
:103880004FF00009A5E732463B46002011490DF0F4
:103890000FFED4E924230DF0BFFF32463B46CDE9AD
:1038A0000601DDE904010DF0B7FF02460B46DDE934
:1038B00006010DF0FFFDDDE90267C4E92401A3E77D
:1038C00000000000006066C0A42FFF1F008076404B
:1038D000008066400000F03F002926DDF8B5044670
:1038E00008460D460DF032FF0646D4F8C8000F46D4
:1038F0000DF01CFF02460B46304639460EF0B6F876
:1039000002460B4606460F46D4E920010DF084FF1F
:103910003246C4E920013B46D4E922010EF0A6F864
:10392000C4F8C850C4E92201F8BD70472DE9F84F2A
:1039300057EC106B55EC114B824611EE102A2B46BA
:1039400010EE100A39460EF0EDF9002830D19AF841
:10395000E030CAE93467CAE936454BB3DAF8ACB0AF
:10396000DBE900892046294642464B460EF0C6F95F
:1039700000BB42464B46304639460EF0DDF918B1E1
:10398000CBE90067DAE93645DAE92E6722462B46AD
:10399000304639460EF0D0F940B9DAE934453046C0
:1039A000394622462B460EF0A9F908B1CAE92E4540
:1039B000BDE8F88FCBE90045DAE93645E4E700BF1A
:1039C00001292DE9F84304460CBF0125002503D049
:1039D00084F8E050BDE8F88390F8E030002BF7D190
:1039E000D0F8AC20D0F8A830D2E90067C0E92E6743
:1039F000D0E93689D3E900233046C4E9302339467B
:103A000042464B460EF098F948B9D4E9348930461D
:103A1000394642464B460EF071F90028D8D0C4E929
:103A20002E8984F8E050BDE8F88300BF00231329F5
:103A300010B403650ED84165C36541B10024034647
:103A400000EB810243F8044B9342FBD1C1655DF862
:103A5000044B704714214165F0E700BF036D416DD1
:103A6000DFED147A30B45C1C002500EB830394FB7B
:103A7000F1F2A94201FB1242C0ED167A83ED000A71
:103A80000265C565B0EE670A0BDD034600EB8102F7
:103A9000F3EC017A9A4230EE270AF9D180ED160A4A
:103AA000C16507EE901AF8EEE77A30BC80EE270A7F
:103AB000704700BF00000000704700BF38B52822E3
:103AC0000C4605460846002110F050F90B22094922
:103AD000204611F053F80022E272A86806492061DE
:103AE000002301250320E560626260612162A36119
:103AF000E36138BDE08801000AD7233C10B51021EE
:103B0000044600F0E7FF204610BD00BF10B4034C90
:103B10000460816042715DF8044B7047F0880100D9
:103B200070B50C4C437916465B000125204684F89D
:103B30003B3084F85E5084F85D50FFF7C3F931469E
:103B40002046FFF7BFF929462046FFF727FB284606
:103B500070BD00BF6807FF1FF8B500252A460F4655
:103B6000067B05733D210446FFF7DAFF1E2001F0B6
:103B70007DFA192001F07AFA2A4620460721FFF73C
:103B8000CFFFAFB93A463F212046FFF7C9FF0A20D1
:103B900001F06CFA3246267320463D21FFF7C0FF44
:103BA0001E2001F063FA1420BDE8F84001F05EBA6F
:103BB00080223F212046FFF7B3FFE8E770B5134CA2
:103BC000437901255B000646204684F83B3084F8A3
:103BD0005E5084F85D50FFF775F929462046FFF7DF
:103BE000DDFA2B462A4671792046FFF761FB94F8EF
:103BF000383094F839209A4205D9E2182B4484F8D9
:103C00003830107E70BDFF2070BD00BF6807FF1FF9
:103C100038B5044632480D46FFF768F920460021C2
:103C2000FFF7CCFFA0280BD04FF47A7001F01EFAFA
:103C300000212046FFF7C2FFA02801D0002038BD98
:103C4000002222733D212046FFF76AFF1E2001F06B
:103C50000DFA20223F212046FFF762FF01E001F02C
:103C600005FA00212046FFF7A9FFA0284FF00A001F
:103C7000F5D1322001F0FAF900223E212046FFF76B
:103C80004FFF0A2001F0F2F9002207212046FFF73A
:103C900047FF242241212046FFF742FF0A2001F07E
:103CA000E5F9052242212046FFF73AFF0A2001F0FC
:103CB000DDF900223F212046FFF732FF0A2001F004
:103CC000D5F92A463D2125732046FFF729FF1E20FE
:103CD00001F0CCF9142001F0C9F9012038BD00BF72
:103CE0006807FF1F2DE9F0411B4D90F805E0012703
:103CF0004FEA4E0E804628461E46144685F83BE0A5
:103D000085F85E7085F85D70FFF7DCF83946284667
:103D1000FFF744FA3B46324698F805102846FFF76D
:103D2000C7FAAEB1701E54FA80F0621E2C4695F8A8
:103D3000383095F83910E618994203F101038ABF2B
:103D400084F83830FF23337E02F8013F8242EED1FF
:103D50000120BDE8F08100BF6807FF1FF0B50446F1
:103D600083B0002516460846256031466560A5608B
:103D7000E560256165616A4606230095ADF804504B
:103D8000FFF7B0FF9DF803709DF805509DF8010006
:103D90009DF800109DF802209DF8043041EA0020B3
:103DA00042EA072243EA0523083E00B217B21DB2D9
:103DB000262E2FD8DFE806F0312E2E2E2E2E142E92
:103DC0002E2E2E2E142E2E2E2E2E142E2E2E2E2E47
:103DD0002E2E2E2E2E2E2E2E312E2E2E2E2E31002B
:103DE0000DF0B4FC00221B4B0DF016FDC4E90001E0
:103DF00038460DF0ABFC0022164B0DF00DFDC4E96A
:103E0000020128460DF0A2FC0022124B0DF004FD29
:103E1000C4E90401204603B0F0BD0DF097FC002278
:103E20000D4B0DF023FEC4E9000138460DF08EFC69
:103E30000022094B0DF01AFEC4E9020128460DF0DC
:103E400085FC0022044B0DF011FEC4E9040120465C
:103E500003B0F0BD0000B03F0000594070B524260B
:103E600088B00C4605463246084600210FF07EFF1A
:103E7000104BA9681B680193019B236103226160B9
:103E8000A26029461A2202A82660FFF767FFDDE933
:103E900002010DF099FF6061DDE904010DF094FF6E
:103EA000A061DDE906010DF08FFFE061012008B09F
:103EB00070BD00BFA42FFF1F0368C9B21B6818475D
:103EC0000368C9B21B6818470368C9B21B68184762
:103ED0000368C9B21B68184708B5084601F016FC0C
:103EE000012008BD08B5084601F010FC012008BDFE
:103EF00038B508460D4610F083FD044601462846B5
:103F000001F00EFC204638BD10B508461446114697
:103F100001F006FC204610BD01F0E0BC08B50846E3
:103F200001F0CCFB003018BF012008BD08B50846E1
:103F300001F0A2FB003018BF012008BD0846114661
:103F400001F016BB084601F05DBB00BF084601F05A
:103F5000F3BA00BF01F07CBA034B03EB5100B0FB96
:103F6000F1F001F0B7B900BF001C4E0E10B5064BC2
:103F7000144603EB5100B0FBF1F001F0ABF9204621
:103F8000BDE8104001F02EBA001C4E0E01F08EBCB0
:103F900001F058BC01F046BC01F026BC01F030BC79
:103FA000704700BF08B5084601F01AFF012008BDA0
:103FB00008B5084601F014FF012008BD38B50846D1
:103FC0000D4610F01DFD04460146284601F060FF35
:103FD000204638BD10B508461446114601F058FF7A
:103FE000204610BD02F032B808B5084601F0D0FEF8
:103FF000003018BF012008BD08B5084601F0A6FE34
:10400000003018BF012008BD0846114601F036BE39
:10401000084601F06DBE00BF084601F013BE00BFA8
:1040200001F0B2BD034B03EB5100B0FBF1F001F026
:1040300001BD00BF001C4E0E10B5064B144603EB2D
:104040005100B0FBF1F001F0F5FC2046BDE8104056
:1040500001F064BD001C4E0E01F0E0BF01F0AABFEC
:1040600001F098BF01F078BF01F082BF0368064AF3
:104070001B68934205D110B5C8B201F0B1FE012012
:1040800010BDC9B2184700BFB13F00000368064A1F
:104090001B68934205D110B5C8B201F0A1FE012002
:1040A00010BDC9B2184700BFB13F00000368064AFF
:1040B0001B68934205D110B5C8B201F091FE0120F2
:1040C00010BDC9B2184700BFB13F00000368064ADF
:1040D0001B68934205D110B5C8B201F081FE0120E2
:1040E00010BDC9B2184700BFB13F0000704700BF04
:1040F00008B5084602F0EEF9012008BD08B50846EB
:1041000002F0E8F9012008BD38B508460D4610F068
:1041100077FC04460146284602F0E6F9204638BD01
:1041200010B508461446114602F0DEF9204610BDCF
:1041300002F06ABA08B5084602F0ACF9003018BFC0
:10414000012008BD08B5084602F082F9003018BF0A
:10415000012008BD0846114602F04EB9084602F09B
:1041600075B900BF084602F02BB900BF02F0F0B8E5
:10417000034B03EB5100B0FBF1F002F065B800BF58
:10418000000E270710B5064B144603EB5100B0FB99
:10419000F1F002F059F82046BDE8104002F0A2B854
:1041A000000E270702F018BA02F0E2B902F0D0B907
:1041B00002F0B0B902F0BAB90368064A1B6893422C
:1041C00005D110B5C8B202F085F9012010BDC9B201
:1041D000184700BFFD4000000368064A1B68934271
:1041E00005D110B5C8B202F075F9012010BDC9B2F1
:1041F000184700BFFD4000000368064A1B68934251
:1042000005D110B5C8B202F065F9012010BDC9B2E0
:10421000184700BFFD4000000368064A1B68934230
:1042200005D110B5C8B202F055F9012010BDC9B2D0
:10423000184700BFFD400000704700BF00B5064AA8
:10424000036812885B6883B001A9ADF804200222DC
:10425000984703B05DF804FB248A010010B5036899
:1042600014465B689847204610BD00BFF0B507466E
:104270008BB0002A33D0012A08BF0A2251B321246F
:1042800000E0F4B2B1FBF2F502FB1511C8B2092946
:1042900000F1300198BFC8B20AA988BF3730214465
:1042A00088BFC0B201F8240C661E2946002DE8D153
:1042B00033B1013CE4B20AAB23442D2203F8242C91
:1042C0003B6801AA11195B683846C4F1220298477D
:1042D0000BB0F0BD30228DF825202124E8E70368DB
:1042E000C9B21B6898470BB0F0BD00BF0029BABF28
:1042F00049422D2300230A22FFF7B8BF10B5044618
:1043000003F030FC204610BD38B5214C23685BB16A
:10431000204A1268013B012182F880105A1D08BF13
:104320006FF00203236038BD1A4B1B4D1A682B68CF
:104330000121117093B1194AD2ED007AF5EEC07ADD
:10434000F1EE10FA06D99FED167AF4EEC77AF1EE87
:1043500010FA0ADD236000232B6038BD114803F0FA
:1043600001FC114BFF221A7038BDDFED106ABEEE62
:10437000007AA7EEA67AFCEEC77A17EE902A232AD7
:10438000E8D90B49074803F0A3FB2B68E2E700BF1D
:10439000942FFF1F8C2FFF1F902FFF1F982FFF1FA1
:1043A0008988884C842FFF1F7008FF1F000070420F
:1043B000094300003F284BD8F8B5002A41D03A4BBA
:1043C00002FB01F2A3FB02239B095B0001330029DE
:1043D0003BD007EE901ADFED356AF8EE677A86EE8D
:1043E000A77A334A02EBC0014D6872B631490C78A6
:1043F00084422ED03F2C304C02D8266801273770DB
:1044000052F830202D4F08702D4E3B6002F5807021
:10441000B5EEC07A01212060F1EE10FA4FF4A270DF
:1044200082F8001186ED007A82F88012286006D9A1
:10443000DFED247AB4EEE77AF1EE10FA19DD62B618
:10444000F8BD6FF002030029C3D19FED187AC8E7C9
:1044500070471B4AD2ED007AF4EE477AF1EE10FA7B
:1044600018D116490A6802F00102013A13440B60A0
:10447000E5E7DFED156AFEEE007AE7EE267AFCEE60
:10448000E77A17EE902A232AD9D91049104803F069
:104490001FFBD4E709480F4C016882ED007A01F058
:1044A000010101602360CAE7D34D62100024F44883
:1044B000708A01007008FF1F8C2FFF1F942FFF1FB1
:1044C000982FFF1F8988884C000070420943000024
:1044D000842FFF1F902FFF1F30B4054B054A06495C
:1044E000802400251C711D60184630BC03F036BDC9
:1044F000842FFF1FF806FF1FFD420000374A38498E
:1045000013681B06FCD40B6813F08003F8D172B655
:1045100034490A78002A5FD0334A3448F0B4344C26
:10452000176806682568D4680C303E441432006869
:104530001268304F35442C4420440244C2F34E02EA
:104540002D4E2E482E4D2F4C42F400423A603768D3
:1045500006682D682C4A24680C303E4400681268B6
:104560002A4F35442C4420440244C2F34E02284EC4
:104570002848294D294C42F400423A6037680668C1
:104580002D68274A24680C303E4400681268254F85
:1045900035442C4420440244C2F34E02224E2348A8
:1045A000234D244C42F400423A60376806682D6877
:1045B000214A24680C303E440068126835442C447B
:1045C00020440244C2F34E021C4842F400420260FE
:1045D0000B7062B6F0BC704762B6704724B00340FF
:1045E00024B00B409D2FFF1F38B003403CB0034068
:1045F00040B003402CB0034058B003405CB00340CF
:1046000060B0034064B003406CB0034030B003407E
:1046100038B00B403CB00B4040B00B4044B00B40B6
:104620004CB00B402CB00B4058B00B405CB00B4072
:1046300060B00B4064B00B406CB00B4030B00B402E
:1046400030B42948294A2A4B2A4D6024E1210470BC
:1046500011701B78284C082B30D00A2B274828498A
:1046600037D00C2B0CBF35225D2212232A60236029
:1046700002600B60234B24491B78244ABBB1012301
:104680000B601360224B23491B78234A012B26D948
:10469000042B0FD9082B1ED9102B94BF86238723F8
:1046A0000B6013601D4B01221A7030BC70470B6009
:1046B0001360E7E784230B601360F3E700F58E20B7
:1046C0000F490830212213232A60236002600B6007
:1046D000D0E73922F7E785230B601360E2E78023F8
:1046E0000B601360DEE700BF004007400140074059
:1046F0007108FF1F08B003400CB0034008B00B4026
:104700000CB00B40A02FFF1F20B0034020B00B4087
:104710007208FF1F24B0034024B00B409D2FFF1FE1
:1047200047282FD8334B2DE9F0411E5CFF2E2BD0AC
:10473000314B1B78002B2AD132062CD472B62F4D68
:104740002F4C2F46012326602B7062B672B6236869
:104750001B060CD43B781BB9F4E72B78002BF1D067
:1047600062B603F051F872B623681806F5D5254BEA
:104770001B6800222A7062B6234A107843FA00F0C0
:10478000BDE8F081002070470020BDE8F081FFF710
:10479000B5FE3206D2D572B61C4DDFF87C801C4CBB
:1047A00006F04007FFB206F03F06D8F80030DFB150
:1047B00023F01003C8F8003001232660134A2B7041
:1047C00062B672B6236819060CD413781BB9ECE7ED
:1047D0002B78002BE9D062B603F016F872B6236886
:1047E0001B06F5D50B4BC3E743F01003C8F80030A8
:1047F000E2E700BF288A01009D2FFF1F9F2FFF1FA8
:1048000000B0034010B003409C2FFF1F9E2FFF1FDE
:1048100000B00B4010B00B400CB00B400A4A0B49E3
:10482000136843F4805313600B7843B9084BC022DC
:104830001A70084B80F30C0000B218807047044BCC
:1048400080221A70F5E700BF2C800440A02FFF1FC4
:1048500021C00C4000C00C400A4A0B49136843F4C5
:10486000005313600B7843B9084BC0221A70084BF1
:1048700080F30C0000B218807047044B80221A703D
:10488000F5E700BF2C800440A02FFF1F21D00C4073
:1048900000D00C4008B5FBF777FFFBF7E9FF02F00B
:1048A000B3FFFAE7844641EA000313F003036DD136
:1048B000403A41D351F8043B40F8043B51F8043BE3
:1048C00040F8043B51F8043B40F8043B51F8043BEA
:1048D00040F8043B51F8043B40F8043B51F8043BDA
:1048E00040F8043B51F8043B40F8043B51F8043BCA
:1048F00040F8043B51F8043B40F8043B51F8043BBA
:1049000040F8043B51F8043B40F8043B51F8043BA9
:1049100040F8043B51F8043B40F8043B51F8043B99
:1049200040F8043B51F8043B40F8043B51F8043B89
:1049300040F8043B403ABDD2303211D351F8043B29
:1049400040F8043B51F8043B40F8043B51F8043B69
:1049500040F8043B51F8043B40F8043B103AEDD2D8
:104960000C3205D351F8043B40F8043B043AF9D229
:10497000043208D0D2071CBF11F8013B00F8013BFC
:1049800001D30B8803806046704700BF082A13D309
:104990008B078DD010F003038AD0C3F10403D21A21
:1049A000DB071CBF11F8013B00F8013B80D331F855
:1049B000023B20F8023B7BE7043AD9D3013A11F8D5
:1049C000013B00F8013BF9D20B7803704B78437040
:1049D0008B7883706046704708B5104C08E02368F8
:1049E00059050DD423681A050FD42368DB0411D4AC
:1049F00023685803F3D501F05FFF23685905F1D50B
:104A000000F092FF23681A05EFD501F045FB2368FB
:104A1000DB04EDD501F00AFEEAE700BF3480044074
:104A200008B5FFF7D9FF00BF014B10221A8070476D
:104A300000200540704700BF094908B50B6830B138
:104A40006A461844A2F50052904202D20860184605
:104A500008BD0EF009FB0C2303604FF0FF3008BDCA
:104A60007408FF1F002070474FF0FF30704700BFF1
:104A70004FF400534B600020704700BF0120704787
:104A80004FF0FF30704700BFFEE700BFFEE700BFFA
:104A9000EFF3138070B9EFF310836BB9EFF3058276
:104AA0005AB94FF48070EFF311832BB1984228BFAD
:104AB000184670474FF0FF3070470F2A01D818464C
:104AC000F1E7014BD05CEEE7F0E300E00EF08ABDC9
:104AD0000EF090BD0EF08EBDF0B44D1E2E4600249B
:104AE00000E00134B0FBF2F302FB1300092800F1EF
:104AF00030078ABF3730F8B2C0B206F8010F184647
:104B0000002BEED10A1953704CB1107815F8016FD3
:104B100028700133E01A834202F80169F5DB084688
:104B2000F0BC704710B4114B53F8302092F880421B
:104B300034B1012379B182F880305DF8044B7047BD
:104B400003EBC0035B681A6851B922F002021A60D5
:104B50005DF8044B704782F800315DF8044B7047F4
:104B600042F003021A605DF8044B7047708A01003E
:104B70001C4A02EBC00301295B6811D004291BD039
:104B800052F83000002280F8802229B1022920D07A
:104B9000032922D01A6070474FF480721A60704760
:104BA00052F830004FF4A27280F880121A601A682E
:104BB00022F020021A60704752F830104FF4A272AF
:104BC000012081F880021A601A6842F020021A60FF
:104BD000704740F203121A6070474FF481721A60F6
:104BE000704700BF708A010030B4054B054D064C7C
:104BF000002210211A602A602060196030BC7047C2
:104C000014D0034004D0034000D0034038B5A0F1D5
:104C10004203012B04461FD9002975DD904B1B78F8
:104C2000012505FA03F28A4202D83F2827D938BD68
:104C3000C21E012A2BD9A0F11D02012A73D90E2808
:104C400056D9A4F12302032A57D9864A126802FBD7
:104C5000011222FA03F320E0814B1B780B2B0AD9B7
:104C60000C2B1CBF0C3B1941422C084657D0BDE809
:104C70003840FFF7F1BDC3F10C039940F4E7294632
:104C8000FFF750FF2946BDE83840FFF771BF764A6D
:104C9000126802FB011222FA03F3A21E242A00F278
:104CA000D580DFE812F0CC00C500BE00B700B00030
:104CB000A900A2009B009400D300D300D3008D0074
:104CC000D300D300D300D300D30086007F00780048
:104CD0007100D300D300D300D300D3006A00630077
:104CE000D300D300D300D3005C0055004E00470032
:104CF00044F28412C240D207A3D55C4A126802FB78
:104D0000011222FA03F3C8E73F2890D80021FFF7E9
:104D100009FF20460121BDE83840FFF729BFBDE863
:104D20003840FFF77BBD524A126802FB011222FA9B
:104D300003F3B2E74F49504A0B604FF451731360CD
:104D400038BD4E494E4A0B604FF45173136038BD65
:104D50004C494D4A0B604FF45173136038BD4B49B9
:104D60004B4A0B604FF45173136038BD49494A4AAE
:104D70000B604FF45173136038BD4849484A0B60CB
:104D80004FF45173136038BD4649474A0B6040F2F7
:104D90004443136038BD4549454A0B6040F24443E3
:104DA000136038BD4349444A0B6040F244431360EA
:104DB00038BD4249424A0B6040F24443136038BD5B
:104DC0004049414A0B6040F24443136038BD3F49BB
:104DD0003F4A0B6040F24443136038BD3D493E4AB0
:104DE0000B6040F24443136038BD3C493C4A0B60C1
:104DF00040F24443136038BD3A493B4A0B6040F2ED
:104E00004443136038BD3949394A0B6040F244438A
:104E1000136038BD3749384A0B6040F24443136091
:104E200038BD3649364A0B604FF45173136038BDB4
:104E30003449354A0B604FF45173136038BD334920
:104E4000334A0B6040F24443136038BD3F2C3FF6B9
:104E5000EEAE7F29D4BF00210121204657E700BFD5
:104E60007808FF1F088003400890034008900B401B
:104E700008800B4048900B402CB0044040900B4001
:104E800028B0044038900B4024B0044030900B40D0
:104E900020B0044018800B404CA0044010800B4010
:104EA00048A004401880034008B00440108003402C
:104EB00004B004404080034018C0044038800340E0
:104EC00014C0044018900B4004C0044028800340E4
:104ED00010B00440208003400CB0044028900B40E8
:104EE0000CC0044020900B4008C0044030800340B8
:104EF00010C00440488003401CC004401890034088
:104F000034900440109003403090044010900B40C7
:104F100000C00440DFED387ADFED386A384AB4EE7D
:104F2000E70AF1EE10FA47F6122370B446BF1A46AC
:104F300002240124002322FA03F107EE901AF8EE6E
:104F4000E77A27EEA67AB4EEC70AF1EE10FA07DA8E
:104F50000133072BEFD1D20907EE902AF8EEE77A5A
:104F600087EE807A4FF6FF71C21EF6EE007A77EE7A
:104F7000677AFCEEE77A17EE905A8D4228BF0D460D
:104F8000012A29462AD9172815D9A0F11D02012A7C
:104F90002ED90E2826D9A0F12302032A1CD8194A9B
:104FA000194E1A4D43EAC403002010603060296096
:104FB000136070BC7047164AC24002F0010282F0D2
:104FC0000105002AE1D0134A134E1448156043EA44
:104FD000C40335600160136070BC7047104A114E05
:104FE000114DDFE744F28412C240D207D7D4D2E792
:104FF0000E4A0F4E0F4DD5E7C0E1E4400000803768
:105000000087930300900B4004900B4008900B40E6
:105010006006F000008003400480034008800340E5
:1050200000900340049003400890034000800B4030
:1050300004800B4008800B403F2801D8FFF772BD69
:10504000704700BF3F2806D8044B53F8303093F820
:105050000002C0B270470020704700BF708A010094
:105060003F2801D8FFF784BD704700BF2DE9F84302
:10507000054672B6204F214B214A1B683C681268D6
:1050800062B6520102D5322B88BF013495B3C3F505
:10509000EA331C4EDFF86490DFF86480BF334FF4CE
:1050A0007A72A6FB031302FB04F404EB931472B6AA
:1050B000D9F800103A68D8F800E062B6C1F5EA33D2
:1050C000BF33A6FB03031EF0806FC4EB93134FF4B2
:1050D0007A7002D0322988BF013200FB0233B3F567
:1050E0007A7F04D3013D05D004F57A74DFE702F03E
:1050F0008BFBDCE7BDE8F883A42FFF1F18E000E07E
:1051000004ED00E089888888F8B53E4B3E49DFF819
:1051100018C13E4E3E4ADFF814E13E4D3E4C3F4F33
:105120004FF0006018604FF0805018604FF0005052
:1051300018604FF0804018604FF000401860002069
:10514000086028234EF6FF71CCF80010CEF800302E
:1051500033600EF5012E13602B60236005F50025EA
:105160003B6004F50024B36207F50027936206F55F
:10517000012602F501220EF1100E05F6E87504F67F
:10518000E87407F57F67103220362B602360CEF875
:1051900000303B6013603360214EBB619361092294
:1051A0003260A7F5002706F58056203F08363860A4
:1051B0003160BB60F36047F8042C06F5FD2607F567
:1051C000FE2706F2FC76043730603960B360FB607E
:1051D00046F8042C0836C7F8FC0F06F6FC76114892
:1051E00031602B6023600260FFF72AFA1920FFF775
:1051F0003DFF02F0C9F840F21310BDE8F840FFF798
:1052000035BF00BF04E100E0048003401480034088
:105210001C800340248003402C80034034800340E2
:105220000080034000900B40088003400C80034046
:105230002DE9F84F214B1B6807460BB101221A706C
:10524000DFF888901E4D99F80040DFF884801D4EED
:1052500001343F2C8ABF4FF0000A5FFA84FA5446AB
:10526000AB462B78A34216D1FFF712FC40281FDC77
:1052700033791B06F5D59BF8003001333F2B86BFF1
:1052800000221346DAB218F80330DBB2F3712A7049
:105290002B78A342E8D00C490A4BFFB208F80470FF
:1052A0000120BC22087089F800A0DA70BDE8F88FF0
:1052B000FF28D6DD02F0A8FAD3E700BF3830FF1F81
:1052C0003530FF1F00A006403430FF1F3C30FF1F69
:1052D000B02FFF1F324A33491368F0B543F480639F
:1052E00013600A78304F314E314D324C3249002331
:1052F000152A3B7033702B7023700B7045D01B2A1E
:105300003ED082B32D4B1B78052B34D01A2B41D0C5
:10531000012B1BD01F281FD8002002460125284B37
:10532000284C1A7028495D7004224FF0020E88271D
:105330003C26402598729A704FF0004083F813E0A5
:105340005A751F74DE7025700860F0BD1F4B4FF456
:1053500051721F281A60DFD9C0F34432C0F34715D9
:1053600000F01F00DBE71A4B40F213321A60134BB8
:105370001B78052BCAD1174B4FF451721A60C9E73D
:10538000154B40F213321A60BCE7144B40F2133253
:105390001A60B7E7124B4FF451721A60BAE700BFB8
:1053A00034800440F02FFF1FAC2FFF1FAD2FFF1FD5
:1053B0003C30FF1F3530FF1F3430FF1F7908FF1FBF
:1053C00000A006401FE400E000E100E044A004402B
:1053D00040A004401CC004403C90044018C004405D
:1053E00038900440194B19499B7803F0EC0200F007
:1053F00003031343420700F00F0248BF43F01003BA
:10540000042A8B701CD0114B104A5B79C10603F043
:10541000EF0348BF43F0100353719379820603F002
:10542000EF030A4A48BF43F010039371C30506D542
:1054300053781178DBB241F020011170537070473E
:105440008B7943F040038B71DDE700BF00A006407D
:105450002A4B1B685B0536D510B5294C237823B140
:1054600002F0D2F92378002BFAD12648264A274B9E
:105470004FF0004400210460D1701B78152B23D01D
:105480001B2B35D01BB9224B40F203121A60214B63
:105490001B7803F07F03052B20D01A2B23D0012B80
:1054A00003D11D4B40F203121A601C4A164B1C48D4
:1054B0001C4912681C79DB79002303700B700AB158
:1054C0000123137010BD7047174B40F203121A608E
:1054D000104B1B7803F07F03052BDED1134B40F2FA
:1054E00003121A60E1E7124B40F203121A60DCE784
:1054F000104B40F203121A60C9E700BF3480044029
:105500003430FF1F80E100E000A00640F02FFF1FB5
:1055100040A004407908FF1F44A00440A82FFF1FAB
:10552000AC2FFF1FAD2FFF1F18C004401CC004404C
:10553000389004403C9004400A4A38B50546137838
:1055400003F0FF04002BFAD101212846FFF788FD64
:1055500021462846FFF770FD034A044B52F83520D8
:105560001A6038BD3430FF1F708A01003830FF1FC9
:1055700009B140F080001E4A137898421BD010B445
:105580001C4C2468640513D503F07F03052B2AD037
:105590001A2B24D0012B14D0002900F07F0114BF56
:1055A00060234423052915D01A290ED0012903D0E0
:1055B00010705DF8044B70470F4943F440730B6063
:1055C000F6E70D4B00241C60E6E70C4943F44073FA
:1055D0000B60EDE70A4943F440730B60E8E7074BC3
:1055E00000241C60D8E7064B00241C60D4E700BFF1
:1055F0007908FF1F3480044044A0044038900440E0
:105600001CC00440174A137883420ED0164909681B
:10561000490509D5152B20D01B2B1AD05BB11528B5
:105620000DD01B2810D008B1107070470F4B40F2FE
:1056300013311960F8E70D4915280B60F1D10C4BB7
:1056400040F213311960EFE70A4B40F21331196051
:10565000EAE7084B00211960E1E7054B00211960DA
:10566000DDE700BFF02FFF1F3480044040A004405E
:1056700018C004403C9004400D4B1B6813F4806339
:1056800005D03F2805D90B4B0020186070471846FD
:105690007047094B10B5074C53F830302360012197
:1056A000FFF7DEFC236800221A70012010BD00BF46
:1056B00034800440A82FFF1F708A01000F4B1B6825
:1056C00013F4806308D0122808D0142811D00C4A93
:1056D000537B03F0FE03537300207047094B40F2E5
:1056E00002321A60064A537B43F0010353730120D0
:1056F0007047054B40F202321A60F3E734800440F1
:1057000000A006400CA0044014C00440034B1B68DA
:105710005B0501D5FFF78CBD704700BF34800440A6
:105720002DE9F84F294B1B685A0548D5284B1B68B3
:1057300005460BB101221A7005EB010A554540D20E
:10574000DFF89C80234CDFF89C90234F0AE015F88B
:10575000012B09F80B20214A0123AA45137088F870
:1057600000602ED098F80030227803F1010BBBF1D5
:105770003F0F86BF0026B3465FFA8BF69345E6D10E
:10578000BC22FA7005E03A7913060BD422789345CF
:10579000DDD1FFF77DF94028F5DDFF28F6DD02F0C9
:1057A00033F8F3E7227801323F2A86BF00210A4608
:1057B000D1B219F80220D2B2FA712170E6E7BDE841
:1057C000F88F054BBC22DA70BDE8F88F34800440B6
:1057D0003830FF1F3530FF1F00A006403430FF1F58
:1057E0003C30FF1FB02FFF1F10B5044C237823B1AE
:1057F00002F00AF82378002BFAD110BD3430FF1FD5
:10580000064A074B1B781078DBB2C0B283422CBF2C
:105810003F3000F1FF30C01A704700BF3530FF1F26
:105820003C30FF1F054A064B10781B78C0B2DBB234
:10583000984238BF4030C01A704700BFAC2FFF1FDE
:10584000AD2FFF1F30B4154B154C1A782378D2B208
:10585000DBB29A421ED001333F2B0ED91149124BB5
:10586000087819680023C0B2237021B1D31A1A2B0B
:1058700001DC00230B7030BC70470A480A49C05C49
:105880000968DDB2C0B225700029F4D09A4238BF51
:105890004032EBE74FF0FF30EDE700BFAC2FFF1FCA
:1058A000AD2FFF1FF42FFF1FA82FFF1F084A094B22
:1058B00012781B78DBB29A4207D00133402B28BF05
:1058C0000023054AD05CC0B270474FF0FF307047EC
:1058D000AC2FFF1FAD2FFF1FF42FFF1F0D4B1B68B9
:1058E0005B0516D530B40C4B0C4CDA780C480D49DE
:1058F00002F0CB024025DA705D74DA7842F03402AF
:10590000DA7023780268DBB20B700AB100231370DF
:1059100030BC70473480044000A00640AD2FFF1F0C
:10592000A82FFF1FAC2FFF1FF0B4384B1A7912F0CD
:10593000300F2CD072B6997D01F0FF0200293DD0C6
:1059400062B6334F334938780D78334E1C46C0B2B7
:10595000EDB2431C402BE17928BF0023AB4202F19A
:10596000FF32C9B21CBFF154184612F0FF02F0D149
:105970002A4B1B68C2B23A704BB1A84236BFC5F180
:105980004005401B40192728C4BF01221A701F4937
:10599000CA78D2B2150616D452060DD51B4B1B7908
:1059A0005B0609D51E4B1F491B6800220A7003B114
:1059B0001A70164B3C22DA70F0BC70474022D9793D
:1059C0005A7462B6E3E70B791C06E5D5164B174E01
:1059D0001C783378E4B2DBB29C420ED0144D01E067
:1059E000A3420AD00133402B28BF00230879E85C8A
:1059F000C0B2C871087D0728F2D9DBB20349337001
:105A00000B79180644BF7C23CB70C5E700A0064085
:105A1000AC2FFF1FAD2FFF1FF42FFF1FA82FFF1F5D
:105A20003830FF1F3430FF1F3C30FF1F3530FF1F61
:105A3000B02FFF1F2A4A2B491368F0B443F40063C8
:105A400013600A78284F294E294D2A4C2A490023F1
:105A5000092A3B7033702B7023700B703AD03B2AAD
:105A60001ED0264B1B780A2B22D03A2B2DD01F2874
:105A700024D8002002460126214B224D1A70224CC8
:105A80005E7004219872022288273C26402099707B
:105A9000DA7459751F74DE7028702260F0BC70478C
:105AA0001A4B40F213321A60144B1B780A2BDCD1CC
:105AB000174B4FF451721F281A60DAD9C0F34432E1
:105AC000C0F3471600F01F00D6E7124B4FF4517297
:105AD0001A60CCE7104B40F213321A60C1E700BFE6
